{
  "_format": "hh-sol-artifact-1",
  "contractName": "StudentData",
  "sourceName": "contracts/Transactions.sol",
  "abi": [
    {
      "inputs": [
        {
          "internalType": "string",
          "name": "_name",
          "type": "string"
        },
        {
          "internalType": "uint256",
          "name": "_age",
          "type": "uint256"
        },
        {
          "internalType": "string[]",
          "name": "_subjects",
          "type": "string[]"
        },
        {
          "internalType": "uint256[]",
          "name": "_marks",
          "type": "uint256[]"
        }
      ],
      "name": "addStudentData",
      "outputs": [],
      "stateMutability": "nonpayable",
      "type": "function"
    },
    {
      "inputs": [],
      "name": "getStudentData",
      "outputs": [
        {
          "internalType": "string",
          "name": "",
          "type": "string"
        },
        {
          "internalType": "uint256",
          "name": "",
          "type": "uint256"
        },
        {
          "internalType": "string[]",
          "name": "",
          "type": "string[]"
        },
        {
          "internalType": "uint256[]",
          "name": "",
          "type": "uint256[]"
        }
      ],
      "stateMutability": "view",
      "type": "function"
    },
    {
      "inputs": [
        {
          "internalType": "string",
          "name": "_name",
          "type": "string"
        },
        {
          "internalType": "uint256",
          "name": "_age",
          "type": "uint256"
        },
        {
          "internalType": "string[]",
          "name": "_subjects",
          "type": "string[]"
        },
        {
          "internalType": "uint256[]",
          "name": "_marks",
          "type": "uint256[]"
        }
      ],
      "name": "updateStudentData",
      "outputs": [],
      "stateMutability": "nonpayable",
      "type": "function"
    }
  ],
  "bytecode": "0x608060405234801561001057600080fd5b50611580806100206000396000f3fe608060405234801561001057600080fd5b50600436106100415760003560e01c8063016bee1d146100465780635fd7b16a1461006257806399e61ce314610083575b600080fd5b610060600480360381019061005b9190610de1565b61009f565b005b61006a610259565b60405161007a94939291906110f4565b60405180910390f35b61009d60048036038101906100989190610de1565b610581565b005b600015156000803373ffffffffffffffffffffffffffffffffffffffff1673ffffffffffffffffffffffffffffffffffffffff1681526020019081526020016000206040516100ed9061117f565b908152602001604051809103902060040160009054906101000a900460ff1615151461014e576040517f08c379a0000000000000000000000000000000000000000000000000000000008152600401610145906111e0565b60405180910390fd5b60006040518060a00160405280868152602001858152602001848152602001838152602001600115158152509050806000803373ffffffffffffffffffffffffffffffffffffffff1673ffffffffffffffffffffffffffffffffffffffff1681526020019081526020016000206040516101c79061117f565b908152602001604051809103902060008201518160000190816101ea919061140c565b50602082015181600101556040820151816002019080519060200190610211929190610981565b50606082015181600301908051906020019061022e9291906109da565b5060808201518160040160006101000a81548160ff0219169083151502179055509050505050505050565b60606000606080600115156000803373ffffffffffffffffffffffffffffffffffffffff1673ffffffffffffffffffffffffffffffffffffffff1681526020019081526020016000206040516102ae9061117f565b908152602001604051809103902060040160009054906101000a900460ff1615151461030f576040517f08c379a00000000000000000000000000000000000000000000000000000000081526004016103069061152a565b60405180910390fd5b60008060003373ffffffffffffffffffffffffffffffffffffffff1673ffffffffffffffffffffffffffffffffffffffff16815260200190815260200160002060405161035b9061117f565b90815260200160405180910390206040518060a00160405290816000820180546103849061122f565b80601f01602080910402602001604051908101604052809291908181526020018280546103b09061122f565b80156103fd5780601f106103d2576101008083540402835291602001916103fd565b820191906000526020600020905b8154815290600101906020018083116103e057829003601f168201915b505050505081526020016001820154815260200160028201805480602002602001604051908101604052809291908181526020016000905b828210156104e15783829060005260206000200180546104549061122f565b80601f01602080910402602001604051908101604052809291908181526020018280546104809061122f565b80156104cd5780601f106104a2576101008083540402835291602001916104cd565b820191906000526020600020905b8154815290600101906020018083116104b057829003601f168201915b505050505081526020019060010190610435565b5050505081526020016003820180548060200260200160405190810160405280929190818152602001828054801561053857602002820191906000526020600020905b815481526020019060010190808311610524575b505050505081526020016004820160009054906101000a900460ff1615151515815250509050806000015181602001518260400151836060015194509450945094505090919293565b600115156000803373ffffffffffffffffffffffffffffffffffffffff1673ffffffffffffffffffffffffffffffffffffffff1681526020019081526020016000206040516105cf9061117f565b908152602001604051809103902060040160009054906101000a900460ff16151514610630576040517f08c379a00000000000000000000000000000000000000000000000000000000081526004016106279061152a565b60405180910390fd5b60008060003373ffffffffffffffffffffffffffffffffffffffff1673ffffffffffffffffffffffffffffffffffffffff16815260200190815260200160002060405161067c9061117f565b90815260200160405180910390206040518060a00160405290816000820180546106a59061122f565b80601f01602080910402602001604051908101604052809291908181526020018280546106d19061122f565b801561071e5780601f106106f35761010080835404028352916020019161071e565b820191906000526020600020905b81548152906001019060200180831161070157829003601f168201915b505050505081526020016001820154815260200160028201805480602002602001604051908101604052809291908181526020016000905b828210156108025783829060005260206000200180546107759061122f565b80601f01602080910402602001604051908101604052809291908181526020018280546107a19061122f565b80156107ee5780601f106107c3576101008083540402835291602001916107ee565b820191906000526020600020905b8154815290600101906020018083116107d157829003601f168201915b505050505081526020019060010190610756565b5050505081526020016003820180548060200260200160405190810160405280929190818152602001828054801561085957602002820191906000526020600020905b815481526020019060010190808311610845575b505050505081526020016004820160009054906101000a900460ff161515151581525050905084816000018190525083816020018181525050828160400181905250818160600181905250806000803373ffffffffffffffffffffffffffffffffffffffff1673ffffffffffffffffffffffffffffffffffffffff1681526020019081526020016000206040516108ef9061117f565b90815260200160405180910390206000820151816000019081610912919061140c565b50602082015181600101556040820151816002019080519060200190610939929190610981565b5060608201518160030190805190602001906109569291906109da565b5060808201518160040160006101000a81548160ff0219169083151502179055509050505050505050565b8280548282559060005260206000209081019282156109c9579160200282015b828111156109c85782518290816109b8919061140c565b50916020019190600101906109a1565b5b5090506109d69190610a27565b5090565b828054828255906000526020600020908101928215610a16579160200282015b82811115610a155782518255916020019190600101906109fa565b5b509050610a239190610a4b565b5090565b5b80821115610a475760008181610a3e9190610a68565b50600101610a28565b5090565b5b80821115610a64576000816000905550600101610a4c565b5090565b508054610a749061122f565b6000825580601f10610a865750610aa5565b601f016020900490600052602060002090810190610aa49190610a4b565b5b50565b6000604051905090565b600080fd5b600080fd5b600080fd5b600080fd5b6000601f19601f8301169050919050565b7f4e487b7100000000000000000000000000000000000000000000000000000000600052604160045260246000fd5b610b0f82610ac6565b810181811067ffffffffffffffff82111715610b2e57610b2d610ad7565b5b80604052505050565b6000610b41610aa8565b9050610b4d8282610b06565b919050565b600067ffffffffffffffff821115610b6d57610b6c610ad7565b5b610b7682610ac6565b9050602081019050919050565b82818337600083830152505050565b6000610ba5610ba084610b52565b610b37565b905082815260208101848484011115610bc157610bc0610ac1565b5b610bcc848285610b83565b509392505050565b600082601f830112610be957610be8610abc565b5b8135610bf9848260208601610b92565b91505092915050565b6000819050919050565b610c1581610c02565b8114610c2057600080fd5b50565b600081359050610c3281610c0c565b92915050565b600067ffffffffffffffff821115610c5357610c52610ad7565b5b602082029050602081019050919050565b600080fd5b6000610c7c610c7784610c38565b610b37565b90508083825260208201905060208402830185811115610c9f57610c9e610c64565b5b835b81811015610ce657803567ffffffffffffffff811115610cc457610cc3610abc565b5b808601610cd18982610bd4565b85526020850194505050602081019050610ca1565b5050509392505050565b600082601f830112610d0557610d04610abc565b5b8135610d15848260208601610c69565b91505092915050565b600067ffffffffffffffff821115610d3957610d38610ad7565b5b602082029050602081019050919050565b6000610d5d610d5884610d1e565b610b37565b90508083825260208201905060208402830185811115610d8057610d7f610c64565b5b835b81811015610da95780610d958882610c23565b845260208401935050602081019050610d82565b5050509392505050565b600082601f830112610dc857610dc7610abc565b5b8135610dd8848260208601610d4a565b91505092915050565b60008060008060808587031215610dfb57610dfa610ab2565b5b600085013567ffffffffffffffff811115610e1957610e18610ab7565b5b610e2587828801610bd4565b9450506020610e3687828801610c23565b935050604085013567ffffffffffffffff811115610e5757610e56610ab7565b5b610e6387828801610cf0565b925050606085013567ffffffffffffffff811115610e8457610e83610ab7565b5b610e9087828801610db3565b91505092959194509250565b600081519050919050565b600082825260208201905092915050565b60005b83811015610ed6578082015181840152602081019050610ebb565b60008484015250505050565b6000610eed82610e9c565b610ef78185610ea7565b9350610f07818560208601610eb8565b610f1081610ac6565b840191505092915050565b610f2481610c02565b82525050565b600081519050919050565b600082825260208201905092915050565b6000819050602082019050919050565b600082825260208201905092915050565b6000610f7282610e9c565b610f7c8185610f56565b9350610f8c818560208601610eb8565b610f9581610ac6565b840191505092915050565b6000610fac8383610f67565b905092915050565b6000602082019050919050565b6000610fcc82610f2a565b610fd68185610f35565b935083602082028501610fe885610f46565b8060005b8581101561102457848403895281516110058582610fa0565b945061101083610fb4565b925060208a01995050600181019050610fec565b50829750879550505050505092915050565b600081519050919050565b600082825260208201905092915050565b6000819050602082019050919050565b61106b81610c02565b82525050565b600061107d8383611062565b60208301905092915050565b6000602082019050919050565b60006110a182611036565b6110ab8185611041565b93506110b683611052565b8060005b838110156110e75781516110ce8882611071565b97506110d983611089565b9250506001810190506110ba565b5085935050505092915050565b6000608082019050818103600083015261110e8187610ee2565b905061111d6020830186610f1b565b818103604083015261112f8185610fc1565b905081810360608301526111438184611096565b905095945050505050565b600081905092915050565b50565b600061116960008361114e565b915061117482611159565b600082019050919050565b600061118a8261115c565b9150819050919050565b7f53747564656e74206461746120616c7265616479206578697374732e00000000600082015250565b60006111ca601c83610ea7565b91506111d582611194565b602082019050919050565b600060208201905081810360008301526111f9816111bd565b9050919050565b7f4e487b7100000000000000000000000000000000000000000000000000000000600052602260045260246000fd5b6000600282049050600182168061124757607f821691505b60208210810361125a57611259611200565b5b50919050565b60008190508160005260206000209050919050565b60006020601f8301049050919050565b600082821b905092915050565b6000600883026112c27fffffffffffffffffffffffffffffffffffffffffffffffffffffffffffffffff82611285565b6112cc8683611285565b95508019841693508086168417925050509392505050565b6000819050919050565b60006113096113046112ff84610c02565b6112e4565b610c02565b9050919050565b6000819050919050565b611323836112ee565b61133761132f82611310565b848454611292565b825550505050565b600090565b61134c61133f565b61135781848461131a565b505050565b5b8181101561137b57611370600082611344565b60018101905061135d565b5050565b601f8211156113c05761139181611260565b61139a84611275565b810160208510156113a9578190505b6113bd6113b585611275565b83018261135c565b50505b505050565b600082821c905092915050565b60006113e3600019846008026113c5565b1980831691505092915050565b60006113fc83836113d2565b9150826002028217905092915050565b61141582610e9c565b67ffffffffffffffff81111561142e5761142d610ad7565b5b611438825461122f565b61144382828561137f565b600060209050601f8311600181146114765760008415611464578287015190505b61146e85826113f0565b8655506114d6565b601f19841661148486611260565b60005b828110156114ac57848901518255600182019150602085019450602081019050611487565b868310156114c957848901516114c5601f8916826113d2565b8355505b6001600288020188555050505b505050505050565b7f53747564656e74206461746120646f6573206e6f742065786973742e00000000600082015250565b6000611514601c83610ea7565b915061151f826114de565b602082019050919050565b6000602082019050818103600083015261154381611507565b905091905056fea264697066735822122013170d323df17e17fe0338aefcff54e792debedc71e2b4c37e4c37797631987b64736f6c63430008130033",
  "linkReferences": {},
  "deployedLinkReferences": {}
}